:100000000C9464000C948C000C948C000C948C0068
:100010000C948C000C948C000C948C000C948C0030
:100020000C948C000C948C000C948C000C948C0020
:100030000C948C000C948C000C948C000C948C0010
:100040000C94E0010C948C000C9421050C94530545
:100050000C948C000C948C000C948C000C948C00F0
:100060000C948C000C948C0000000008000201002D
:100070000003040700000000000000000102040863
:100080001020408001020408102001020408102002
:10009000040404040404040402020202020203032E
:1000A00003030303000000002300260029000000D2
:1000B0000000250028002B0000000000240027007D
:1000C0002A00D6018305DC0111241FBECFEFD8E042
:1000D000DEBFCDBF12E0A0E0B1E0E4EBF3E102C08F
:1000E00005900D92A638B107D9F723E0A6E8B2E053
:1000F00001C01D92A834B207E1F710E0C6ECD0E0D1
:1001000004C02297FE010E949107C23CD107C9F7A3
:100110000E945D070C94CD090C940000CF93DF93EF
:10012000EB01C80FD91F62E370E080E090E00E940D
:100130005902BE018BE00E94BC02CE01DF91CF913B
:10014000089561E08BE00E94440360E082E00C943B
:10015000440369E071E087EA92E00E94110664E2DC
:1001600071E087EA92E00E94110668E371E087EA95
:1001700092E00C9411066DE571E087EA92E00E942E
:10018000110680E090E0DC0165E070E00E948E00E6
:10019000AA2797FDA095BA2F8F3F9105A105B1051C
:1001A0009CF360E08BE00E947D0365E671E087EAE6
:1001B00092E00E9411060E942A0260938C027093C2
:1001C0008D0280938E0290938F0281E0089526E045
:1001D00040E855E260E070E087EA92E00E94BF04E8
:1001E00067E771E087EA92E00E94110687EA92E0F1
:1001F0000C940D060E94E7000E94A1000E94BB0023
:100200000C94A90061E971E087EA92E00E9411066E
:100210006EE971E087EA92E00E94110666EB71E0F8
:1002200087EA92E00E9411066FEC71E087EA92E0A3
:100230000E94110666EE71E087EA92E00E941106C4
:100240006BEF71E087EA92E00E9411066EE072E0C7
:1002500087EA92E00C9411060F931F9382E00E94AC
:10026000B30390939D0280939C0281309105E1F548
:1002700080919802909199028130910509F071C0A6
:100280000E942A0200919002109191022091920204
:1002900030919302601B710B820B930B609394025D
:1002A00070939502809396029093970265E070E0B8
:1002B00080E090E00E94590280919A0290919B0206
:1002C000019690939B0280939A02409194025091E0
:1002D000950260919602709197022AE030E087EAD9
:1002E00092E00E94C60650C0892B09F047C0809159
:1002F000980290919902009769F46AEF70E080E0AB
:1003000090E00E94590260E272E087EA92E00E9467
:1003100011063AC0019791F56BE272E087EA92E02C
:100320000E940406409194025091950260919602B9
:10033000709197022AE030E087EA92E00E947C0602
:1003400060E472E087EA92E00E9404060E940201E3
:1003500010929002109291021092920210929302C7
:1003600013C0892B59F40E942A0260939002709363
:100370009102809392029093930206C061E572E02D
:1003800087EA92E00E94040680919C0290919D026F
:100390009093990280939802019711F461E001C053
:1003A00060E08BE01F910F910C947D036DE572E08E
:1003B00086E892E00C94460786E892E00C94D80612
:1003C0001F920F920FB60F9211242F933F938F938A
:1003D0009F93AF93BF9380919F029091A002A091B1
:1003E000A102B091A20230919E0223E0230F2D378B
:1003F00020F40196A11DB11D05C026E8230F029629
:10040000A11DB11D20939E0280939F029093A00294
:10041000A093A102B093A2028091A3029091A402A2
:10042000A091A502B091A6020196A11DB11D8093D5
:10043000A3029093A402A093A502B093A602BF9139
:10044000AF919F918F913F912F910F900FBE0F9081
:100450001F9018952FB7F89460919F027091A00299
:100460008091A1029091A2022FBF08953FB7F89406
:100470008091A3029091A402A091A502B091A6023E
:1004800026B5A89B05C02F3F19F00196A11DB11DEF
:100490003FBF6627782F892F9A2F620F711D811D0C
:1004A000911D42E0660F771F881F991F4A95D1F76B
:1004B0000895CF92DF92EF92FF92CF93DF936B017B
:1004C0007C010E943602EB01C114D104E104F10465
:1004D00089F00E946C070E9436026C1B7D0B683EFF
:1004E000734090F381E0C81AD108E108F108C851BF
:1004F000DC4FEACFDF91CF91FF90EF90DF90CF906C
:100500000895789484B5826084BD84B5816084BD8B
:1005100085B5826085BD85B5816085BDEEE6F0E07C
:10052000808181608083E1E8F0E0108280818260D8
:100530008083808181608083E0E8F0E08081816059
:100540008083E1EBF0E0808184608083E0EBF0E089
:10055000808181608083EAE7F0E08081846080832D
:1005600080818260808380818160808380818068D7
:1005700080831092C10008951F93CF93DF93182FAB
:10058000EB0161E00E944403209711F460E004C095
:10059000CF3FD10539F461E0812FDF91CF911F91D9
:1005A0000C947D03E12FF0E0E859FF4FE491E33034
:1005B000F9F048F4E130B9F0E230A1F584B5806299
:1005C00084BDC8BD34C0E730E9F0E83019F1E4304B
:1005D00049F580918000806280938000D0938B00E9
:1005E000C0938A0024C084B5806884BDC7BD1FC085
:1005F00080918000806880938000D0938900C093B0
:10060000880015C08091B00080688093B000C093CE
:10061000B3000DC08091B00080628093B000C093A1
:10062000B40005C0C038D1050CF0B5CFAFCFDF9115
:10063000CF911F910895833081F028F4813099F093
:100640008230A1F008958730A9F08830B9F0843065
:10065000D1F4809180008F7D03C0809180008F77DE
:1006600080938000089584B58F7702C084B58F7D14
:1006700084BD08958091B0008F7703C08091B00051
:100680008F7D8093B0000895CF93DF9390E0FC01BD
:10069000E458FF4F2491FC01E057FF4F84918823D9
:1006A00049F190E0880F991FFC01E854FF4FA59194
:1006B000B49182559F4FFC01C591D4919FB76111B0
:1006C00008C0F8948C91209582238C938881822392
:1006D0000AC0623051F4F8948C91322F3095832304
:1006E0008C938881822B888304C0F8948C91822B10
:1006F0008C939FBFDF91CF9108950F931F93CF935A
:10070000DF931F92CDB7DEB7282F30E0F901E8590B
:10071000FF4F8491F901E458FF4F1491F901E0571C
:10072000FF4F04910023C9F0882321F069830E94C0
:100730001B036981E02FF0E0EE0FFF1FE255FF4F32
:10074000A591B4919FB7F8948C91611103C0109555
:10075000812301C0812B8C939FBF0F90DF91CF919C
:100760001F910F910895CF93DF93282F30E0F90167
:10077000E859FF4F8491F901E458FF4FD491F901F2
:10078000E057FF4FC491CC2391F081110E941B03CD
:10079000EC2FF0E0EE0FFF1FEC55FF4FA591B49149
:1007A0002C912D2381E090E021F480E002C080E0D4
:1007B00090E0DF91CF910895FC01818D228D90E032
:1007C000805C9F4F821B91098F7399270895FC01CC
:1007D000918D828D981731F0828DE80FF11D858DF6
:1007E00090E008958FEF9FEF0895FC01918D828D29
:1007F000981761F0828DDF01A80FB11D5D968C9175
:10080000928D9F5F9F73928F90E008958FEF9FEF7F
:10081000089589E795E0892B49F080E090E0892BE5
:1008200029F00E94790581110C9400000895FC01C3
:10083000848DDF01A80FB11DA35ABF4F2C91848D69
:1008400090E001968F739927848FA689B7892C939E
:10085000A089B1898C9180648C93938D848D981339
:1008600006C00288F389E02D80818F7D8083089502
:10087000CF93DF93EC01888D8823C9F0EA89FB8947
:10088000808185FD05C0A889B9898C9186FD0FC03E
:100890000FB607FCF5CF808185FFF2CFA889B98913
:1008A0008C9185FFEDCFCE010E941704E7CFDF9139
:1008B000CF910895CF92DF92FF920F931F93CF9322
:1008C000DF931F92CDB7DEB76C0181E0D601589659
:1008D0008C9358975B969C915B975C968C915C97F8
:1008E000981307C05096ED91FC915197808185FD3A
:1008F0002EC0F601038D10E00F5F1F4F0F731127FD
:10090000F02EF601848DF81211C00FB607FCF9CF56
:10091000D6015096ED91FC915197808185FFF1CFE2
:10092000C60169830E9417046981EBCF838DE80FAC
:10093000F11DE35AFF4F6083D6015B960C935B97E2
:100940005296ED91FC915397808180620CC0D60144
:100950005696ED91FC91579760835096ED91FC91DE
:10096000519780818064808381E090E00F90DF91D7
:10097000CF911F910F91FF90DF90CF900895BF927C
:10098000CF92DF92EF92FF92CF93DF93EC016A0157
:100990007B01B22EE889F98982E08083411581EEDE
:1009A000580761057105A1F060E079E08DE390E002
:1009B000A70196010E946D07215031094109510993
:1009C0005695479537952795211580E1380798F07A
:1009D000E889F989108260E874E88EE190E0A70167
:1009E00096010E946D072150310941095109569520
:1009F000479537952795EC85FD853083EE85FF85F6
:100A00002083188EEC89FD89B082EA89FB89808178
:100A100080618083EA89FB89808188608083EA899C
:100A2000FB89808180688083EA89FB8980818F7D52
:100A30008083DF91CF91FF90EF90DF90CF90BF90B8
:100A400008951F920F920FB60F9211242F938F9338
:100A50009F93EF93FF93E091B702F091B8028081EA
:100A6000E091BD02F091BE0282FD12C090818091A2
:100A7000C0028F5F8F732091C102821751F0E09105
:100A8000C002F0E0E955FD4F958F8093C00201C090
:100A90008081FF91EF919F918F912F910F900FBEC9
:100AA0000F901F9018951F920F920FB60F9211245E
:100AB0002F933F934F935F936F937F938F939F9366
:100AC000AF93BF93EF93FF9387EA92E00E941704DE
:100AD000FF91EF91BF91AF919F918F917F916F9116
:100AE0005F914F913F912F910F900FBE0F901F90EC
:100AF000189587EA92E00E94DC0321E0892B09F433
:100B000020E0822F08951092AA021092A90288EE86
:100B100093E0A0E0B0E08093AB029093AC02A0938E
:100B2000AD02B093AE028AE692E09093A802809361
:100B3000A70285EC90E09093B4028093B30284EC1A
:100B400090E09093B6028093B50280EC90E0909391
:100B5000B8028093B70281EC90E09093BA02809340
:100B6000B90282EC90E09093BC028093BB0286ECC9
:100B700090E09093BE028093BD021092C00210924A
:100B8000C1021092C2021092C3020895CF92DF9266
:100B9000EF92FF920F931F93CF93DF937C016A0133
:100BA000EB0100E010E00C151D0571F06991D70113
:100BB000ED91FC910190F081E02DC7010995892B01
:100BC00019F00F5F1F4FEFCFC801DF91CF911F9139
:100BD0000F91FF90EF90DF90CF9008956115710510
:100BE00081F0DB010D900020E9F7AD014150510982
:100BF000461B570BDC01ED91FC910280F381E02D47
:100C0000099480E090E008950C94EE05DC01ED91EC
:100C1000FC910190F081E02D099466E772E00C945C
:100C2000EE050F931F93CF93DF93EC010E94EE0527
:100C30008C01CE010E940D06800F911FDF91CF9194
:100C40001F910F9108958F929F92AF92BF92CF9272
:100C5000DF92EF92FF920F931F93CF93DF93CDB765
:100C6000DEB7A1970FB6F894DEBF0FBECDBF7C01F3
:100C7000C42EE52FCB01D22E19A221E02D1510F0A4
:100C80002AE0D22E8E010F5D1F4F8D2C912CA12CAE
:100C9000B12C6C2D7E2FA50194010E946D078C2D27
:100CA000D29E80191124015011098A3014F4805DFC
:100CB00001C0895CF801808321153105410551058A
:100CC00021F0C22EE32FCA01E4CFB801C7010E9470
:100CD000EE05A1960FB6F894DEBF0FBECDBFDF9133
:100CE000CF911F910F91FF90EF90DF90CF90BF9029
:100CF000AF909F908F900895CF92DF92EF92FF92E6
:100D00000F931F93CF93DF93EC016A017B012115B1
:100D1000310579F4E881F9810190F081E02D642FAB
:100D2000DF91CF911F910F91FF90EF90DF90CF90C7
:100D300009942A303105E9F477FF1AC06DE20E9468
:100D400006068C0144275527BA014C195D096E0926
:100D50007F092AE0CE010E942306800F911FDF91B8
:100D6000CF911F910F91FF90EF90DF90CF9008955A
:100D70002AE0B701A601CE01DF91CF911F910F911B
:100D8000FF90EF90DF90CF900C9423060F931F936A
:100D9000CF93DF93EC010E947C068C01CE010E9470
:100DA0000D06800F911FDF91CF911F910F91089534
:100DB000FC01808191810C942D08CF93DF93EC018D
:100DC00088819981009711F00E942D08198218825C
:100DD0001D821C821B821A82DF91CF9108950F938E
:100DE0001F93CF93DF93EC018B016F5F7F4F88815F
:100DF00099810E94BC08009731F0998388831B83F6
:100E00000A8381E001C080E0DF91CF911F910F91B3
:100E10000895CF93DF93EC0188819981892B29F084
:100E20008A819B818617970760F4CE010E94EF06A6
:100E3000882341F08C819D81892B19F4E881F98107
:100E4000108281E0DF91CF910895EF92FF920F938E
:100E50001F93CF93DF93EC017B018A01BA010E94BB
:100E60000907811104C0CE010E94DD0607C01D8361
:100E70000C83B701888199810E948F09CE01DF918F
:100E8000CF911F910F91FF90EF900895FC01118277
:100E9000108213821282158214826115710559F035
:100EA000FB0101900020E9F7AF0141505109461BB9
:100EB000570B0C942507089508950E9481020E9403
:100EC0005C070E94FA00C9E0D4E00E942C01209740
:100ED000E1F30E940904F9CF0895A1E21A2EAA1B9A
:100EE000BB1BFD010DC0AA1FBB1FEE1FFF1FA217DA
:100EF000B307E407F50720F0A21BB30BE40BF50BD7
:100F0000661F771F881F991F1A9469F7609570955F
:100F1000809590959B01AC01BD01CF010895EE0F26
:100F2000FF1F0590F491E02D0994CF93DF93823059
:100F3000910510F482E090E0E0914603F0914703C0
:100F400020E030E0A0E0B0E0309739F140815181FD
:100F500048175907B8F04817590771F482819381EF
:100F6000109729F013969C938E9312972CC0909310
:100F700047038093460327C02115310531F04217FE
:100F8000530718F0A901DB0101C0EF019A01BD016F
:100F9000DF010280F381E02DD7CF21153105F9F073
:100FA000281B390B2430310580F48A819B8161151F
:100FB000710521F0FB019383828304C09093470362
:100FC00080934603FE01329644C0FE01E20FF31FF8
:100FD0008193919322503109398328833AC020911B
:100FE000440330914503232B41F4209102013091B9
:100FF0000301309345032093440320910001309175
:1010000001012115310541F42DB73EB7409104018E
:1010100050910501241B350BE0914403F0914503E9
:10102000E217F307A0F42E1B3F0B2817390778F0BF
:10103000AC014E5F5F4F2417350748F04E0F5F1F1E
:1010400050934503409344038193919302C0E0E0A1
:10105000F0E0CF01DF91CF910895CF93DF93009718
:1010600009F487C0FC01329713821282C0914603B3
:10107000D0914703209781F420813181280F391FB7
:1010800080914403909145038217930779F5F0937B
:101090004503E09344036DC0DE0120E030E0AE176D
:1010A000BF0750F412964D915C9113979D01411525
:1010B000510509F1DA01F3CFB383A2834081518155
:1010C000840F951F8A179B0771F48D919C9111973E
:1010D000840F951F02969183808312968D919C9127
:1010E0001397938382832115310529F4F0934703E5
:1010F000E09346033EC0D9011396FC93EE931297FA
:101100004D915D91A40FB51FEA17FB0779F480811B
:101110009181840F951F0296D90111969C938E930D
:101120008281938113969C938E931297E0E0F0E076
:101130008A819B81009719F0FE01EC01F9CFCE0165
:10114000029628813981820F931F209144033091A8
:1011500045032817390769F4309729F4109247039B
:101160001092460302C013821282D0934503C093AB
:101170004403DF91CF910895A0E0B0E0E2ECF8E005
:101180000C949A09EC01CB01209719F40E94950761
:10119000B8C0FE01E60FF71F9E0122503109E21789
:1011A000F30708F4ACC0D9010D911C9111970617F3
:1011B0001707B8F00530110508F49FC0A801445086
:1011C00051094617570708F498C002501109061B29
:1011D000170B019311936D937C93CF010E942D08FF
:1011E0008CC05B01A01AB10A4E01800E911EA09125
:1011F0004603B0914703612C712C60E070E01097BA
:1012000009F449C0A815B905C9F5ED90FC901197EE
:10121000670142E0C40ED11CCA14DB0478F1470117
:101220008A189B08640142E0C40ED11C1296BC903F
:1012300012971396AC91B5E0CB16D10440F0B28270
:10124000A38391828082D9018D939C9309C00E5F04
:101250001F4F0E0D1F1DF90111830083EB2DFA2F77
:101260006115710531F0DB011396FC93EE93129733
:1012700044C0F0934703E09346033FC06D917C91D7
:1012800011976616770608F43B01BD0112960D9082
:10129000BC91A02DB4CF60914403709145036815B3
:1012A0007905E9F468167906D0F44091000150916F
:1012B00001014115510541F44DB75EB7609104013C
:1012C00070910501461B570BE417F507C0F4F09326
:1012D0004503E0934403F901918380830EC00E948B
:1012E00095077C01009759F0A801BE010E9486096C
:1012F000CE010E942D08C70104C0CE0102C080E0CB
:1013000090E0CDB7DEB7EEE00C94B609FB01DC014E
:1013100002C001900D9241505040D8F70895FB0152
:10132000DC0101900D920020E1F708952F923F9289
:101330004F925F926F927F928F929F92AF92BF92E5
:10134000CF92DF92EF92FF920F931F93CF93DF9391
:10135000CDB7DEB7CA1BDB0B0FB6F894DEBF0FBEEE
:10136000CDBF09942A88398848885F846E847D843B
:101370008C849B84AA84B984C884DF80EE80FD803D
:101380000C811B81AA81B981CE0FD11D0FB6F894B3
:10139000DEBF0FBECDBFED01089510E0C6ECD0E07A
:1013A00004C0FE010E9491072296C83CD107C9F7EC
:0413B000F894FFCFDF
:1013B4000000480380006F6E005768617427732033
:1013C40074686174206A75696365206D7920646F3F
:1013D4006F642E00486F7720646F20796F75206CDE
:1013E400696B652069742E005768617420697320E5
:1013F400746865206E6963206C6576656C206F6621
:101404002074686174206A756963652E0053746181
:1014140072747570005374617274757020436F6DCB
:10142400706C6574652E000A0A4C65742773207607
:1014340061706520736F6D65206A756963657321DA
:101444000020202020202020205F205F5F0020201B
:101454002020282D202020202020202D2020295F1E
:101464005F2D202D5F002020202820202D3D2020CE
:101474002D20292020202D20202020205F2900201D
:1014840020285F2D3D205F28202020203D2D202076
:1014940020205F3D2D002020202D282020202020EA
:1014A4002D202020202D20205F29002020202020F6
:1014B4002D3D5F5F285F5F20205F2D292D002020B8
:1014C4002020202020202020202D3D2D0A0A0A0043
:1014D40049276D20736C656570790068656C6420BC
:1014E40074686520627574746F6E20666F723A005A
:1014F400206D696C6C697365636F6E64730A0A0AA4
:1015040000796F20796F20796F20796F004E6F20FA
:101514004A7569636500000000005A04C605DC03CF
:10152400F503E70338040D0A006E616E00696E6608
:06153400006F7666000066
:00000001FF
